{
  "contractName": "Faucet",
  "abi": [
    {
      "inputs": [
        {
          "internalType": "address",
          "name": "",
          "type": "address"
        }
      ],
      "name": "funders",
      "outputs": [
        {
          "internalType": "bool",
          "name": "",
          "type": "bool"
        }
      ],
      "stateMutability": "view",
      "type": "function",
      "constant": true
    },
    {
      "inputs": [
        {
          "internalType": "uint256",
          "name": "",
          "type": "uint256"
        }
      ],
      "name": "lutFunders",
      "outputs": [
        {
          "internalType": "address",
          "name": "",
          "type": "address"
        }
      ],
      "stateMutability": "view",
      "type": "function",
      "constant": true
    },
    {
      "inputs": [],
      "name": "numberOfFunders",
      "outputs": [
        {
          "internalType": "uint256",
          "name": "",
          "type": "uint256"
        }
      ],
      "stateMutability": "view",
      "type": "function",
      "constant": true
    },
    {
      "inputs": [],
      "name": "addFunds",
      "outputs": [],
      "stateMutability": "payable",
      "type": "function",
      "payable": true
    },
    {
      "inputs": [
        {
          "internalType": "uint256",
          "name": "index",
          "type": "uint256"
        }
      ],
      "name": "fetFundersIndex",
      "outputs": [
        {
          "internalType": "address",
          "name": "",
          "type": "address"
        }
      ],
      "stateMutability": "view",
      "type": "function",
      "constant": true
    },
    {
      "inputs": [],
      "name": "getAllFunders",
      "outputs": [
        {
          "internalType": "address[]",
          "name": "",
          "type": "address[]"
        }
      ],
      "stateMutability": "view",
      "type": "function",
      "constant": true
    },
    {
      "inputs": [
        {
          "internalType": "uint256",
          "name": "amount",
          "type": "uint256"
        }
      ],
      "name": "withdraw",
      "outputs": [],
      "stateMutability": "nonpayable",
      "type": "function"
    }
  ],
  "bytecode": "0x608060405234801561001057600080fd5b506108ff806100206000396000f3fe6080604052600436106100705760003560e01c80632e1a7d4d1161004e5780632e1a7d4d1461012c5780636fbbb55d14610155578063a26759cb14610180578063dc79a7fc1461018a57610070565b8063031b3677146100755780631a05d2b2146100b25780631f8947ea146100ef575b600080fd5b34801561008157600080fd5b5061009c600480360381019061009791906105ba565b6101b5565b6040516100a9919061073b565b60405180910390f35b3480156100be57600080fd5b506100d960048036038101906100d491906105e3565b6101d5565b6040516100e691906106fe565b60405180910390f35b3480156100fb57600080fd5b50610116600480360381019061011191906105e3565b610212565b60405161012391906106fe565b60405180910390f35b34801561013857600080fd5b50610153600480360381019061014e91906105e3565b610245565b005b34801561016157600080fd5b5061016a610326565b6040516101779190610719565b60405180910390f35b61018861046b565b005b34801561019657600080fd5b5061019f61058a565b6040516101ac9190610776565b60405180910390f35b60026020528060005260406000206000915054906101000a900460ff1681565b60006001600083815260200190815260200160002060009054906101000a900473ffffffffffffffffffffffffffffffffffffffff169050919050565b60016020528060005260406000206000915054906101000a900473ffffffffffffffffffffffffffffffffffffffff1681565b80670de0b6b3a76400008110610290576040517f08c379a000000000000000000000000000000000000000000000000000000000815260040161028790610756565b60405180910390fd5b670de0b6b3a76400008211156102db576040517f08c379a00000000000000000000000000000000000000000000000000000000081526004016102d290610756565b60405180910390fd5b3373ffffffffffffffffffffffffffffffffffffffff166108fc839081150290604051600060405180830381858888f19350505050158015610321573d6000803e3d6000fd5b505050565b60606000805467ffffffffffffffff81111561036b577f4e487b7100000000000000000000000000000000000000000000000000000000600052604160045260246000fd5b6040519080825280602002602001820160405280156103995781602001602082028036833780820191505090505b50905060005b600054811015610463576001600082815260200190815260200160002060009054906101000a900473ffffffffffffffffffffffffffffffffffffffff16828281518110610416577f4e487b7100000000000000000000000000000000000000000000000000000000600052603260045260246000fd5b602002602001019073ffffffffffffffffffffffffffffffffffffffff16908173ffffffffffffffffffffffffffffffffffffffff1681525050808061045b90610823565b91505061039f565b508091505090565b6000339050600260008273ffffffffffffffffffffffffffffffffffffffff1673ffffffffffffffffffffffffffffffffffffffff16815260200190815260200160002060009054906101000a900460ff166105875760008060008154809291906104d590610823565b9190505590506001600260008473ffffffffffffffffffffffffffffffffffffffff1673ffffffffffffffffffffffffffffffffffffffff16815260200190815260200160002060006101000a81548160ff021916908315150217905550816001600083815260200190815260200160002060006101000a81548173ffffffffffffffffffffffffffffffffffffffff021916908373ffffffffffffffffffffffffffffffffffffffff160217905550505b50565b60005481565b60008135905061059f8161089b565b92915050565b6000813590506105b4816108b2565b92915050565b6000602082840312156105cc57600080fd5b60006105da84828501610590565b91505092915050565b6000602082840312156105f557600080fd5b6000610603848285016105a5565b91505092915050565b60006106188383610624565b60208301905092915050565b61062d816107db565b82525050565b61063c816107db565b82525050565b600061064d826107a1565b61065781856107b9565b935061066283610791565b8060005b8381101561069357815161067a888261060c565b9750610685836107ac565b925050600181019050610666565b5085935050505092915050565b6106a9816107ed565b82525050565b60006106bc6020836107ca565b91507f43616e206e6f74207769746864726177206d6f7265207468616e2031204554486000830152602082019050919050565b6106f881610819565b82525050565b60006020820190506107136000830184610633565b92915050565b600060208201905081810360008301526107338184610642565b905092915050565b600060208201905061075060008301846106a0565b92915050565b6000602082019050818103600083015261076f816106af565b9050919050565b600060208201905061078b60008301846106ef565b92915050565b6000819050602082019050919050565b600081519050919050565b6000602082019050919050565b600082825260208201905092915050565b600082825260208201905092915050565b60006107e6826107f9565b9050919050565b60008115159050919050565b600073ffffffffffffffffffffffffffffffffffffffff82169050919050565b6000819050919050565b600061082e82610819565b91507fffffffffffffffffffffffffffffffffffffffffffffffffffffffffffffffff8214156108615761086061086c565b5b600182019050919050565b7f4e487b7100000000000000000000000000000000000000000000000000000000600052601160045260246000fd5b6108a4816107db565b81146108af57600080fd5b50565b6108bb81610819565b81146108c657600080fd5b5056fea26469706673582212209891f847d63446f0af5ea28519f2b03c6629fd136e6868325ffa04767296ac2064736f6c63430008000033",
  "immutableReferences": {},
  "source": "// SPDX-License-Identifier: MIT\n\npragma solidity >=0.5.0 <0.9.0;\n\n\ncontract Faucet {\n    uint256 public numberOfFunders;\n    mapping(uint256 => address) public lutFunders;\n    mapping(address => bool) public funders;\n\n    modifier limitWithdraw(uint256 amount) {\n        require(amount < 1 * (10**18),\"Can not withdraw more than 1 ETH\");\n        _;\n    }\n\n    function addFunds() external payable {\n        address funder = msg.sender;\n\n        if(!funders[funder]) {\n            uint256 index = numberOfFunders++;\n            funders[funder] = true;\n            lutFunders[index] = funder;\n        }\n        \n    }\n\n\n    function fetFundersIndex(uint256 index) external view returns (address) {\n        return lutFunders[index];\n    }\n\n    function getAllFunders() external view returns (address[] memory) {\n        address[] memory _funders = new address[](numberOfFunders);\n\n        for (uint256 index = 0; index < numberOfFunders; index++) {\n            _funders[index] = lutFunders[index];\n        }\n\n        return _funders;\n    }\n\n    function withdraw(uint256 amount) external limitWithdraw(amount) {\n        require(amount <= 1 * (10**18),\"Can not withdraw more than 1 ETH\");\n        payable(msg.sender).transfer(amount); \n    }\n}",
  "sourcePath": "/Users/maz/Documents/web3/donate-project/web3-donate/contracts/Faucet.sol",
  "compiler": {
    "name": "solc",
    "version": "0.8.0+commit.c7dfd78e.Emscripten.clang"
  },
  "schemaVersion": "3.4.15",
  "updatedAt": "2023-08-25T01:06:26.789Z",
  "networkType": "ethereum",
  "devdoc": {
    "kind": "dev",
    "methods": {},
    "version": 1
  },
  "userdoc": {
    "kind": "user",
    "methods": {},
    "version": 1
  }
}